{
  "_format": "hh-sol-artifact-1",
  "contractName": "Derbie",
  "sourceName": "contracts/Derbie.sol",
  "abi": [
    {
      "inputs": [
        {
          "internalType": "string",
          "name": "_name",
          "type": "string"
        },
        {
          "internalType": "string",
          "name": "_symbol",
          "type": "string"
        },
        {
          "internalType": "string",
          "name": "_baseUri",
          "type": "string"
        }
      ],
      "stateMutability": "nonpayable",
      "type": "constructor"
    },
    {
      "anonymous": false,
      "inputs": [
        {
          "indexed": true,
          "internalType": "address",
          "name": "account",
          "type": "address"
        },
        {
          "indexed": true,
          "internalType": "address",
          "name": "operator",
          "type": "address"
        },
        {
          "indexed": false,
          "internalType": "bool",
          "name": "approved",
          "type": "bool"
        }
      ],
      "name": "ApprovalForAll",
      "type": "event"
    },
    {
      "anonymous": false,
      "inputs": [
        {
          "indexed": true,
          "internalType": "address",
          "name": "previousOwner",
          "type": "address"
        },
        {
          "indexed": true,
          "internalType": "address",
          "name": "newOwner",
          "type": "address"
        }
      ],
      "name": "OwnershipTransferred",
      "type": "event"
    },
    {
      "anonymous": false,
      "inputs": [
        {
          "indexed": true,
          "internalType": "address",
          "name": "operator",
          "type": "address"
        },
        {
          "indexed": true,
          "internalType": "address",
          "name": "from",
          "type": "address"
        },
        {
          "indexed": true,
          "internalType": "address",
          "name": "to",
          "type": "address"
        },
        {
          "indexed": false,
          "internalType": "uint256[]",
          "name": "ids",
          "type": "uint256[]"
        },
        {
          "indexed": false,
          "internalType": "uint256[]",
          "name": "values",
          "type": "uint256[]"
        }
      ],
      "name": "TransferBatch",
      "type": "event"
    },
    {
      "anonymous": false,
      "inputs": [
        {
          "indexed": true,
          "internalType": "address",
          "name": "operator",
          "type": "address"
        },
        {
          "indexed": true,
          "internalType": "address",
          "name": "from",
          "type": "address"
        },
        {
          "indexed": true,
          "internalType": "address",
          "name": "to",
          "type": "address"
        },
        {
          "indexed": false,
          "internalType": "uint256",
          "name": "id",
          "type": "uint256"
        },
        {
          "indexed": false,
          "internalType": "uint256",
          "name": "value",
          "type": "uint256"
        }
      ],
      "name": "TransferSingle",
      "type": "event"
    },
    {
      "anonymous": false,
      "inputs": [
        {
          "indexed": false,
          "internalType": "string",
          "name": "value",
          "type": "string"
        },
        {
          "indexed": true,
          "internalType": "uint256",
          "name": "id",
          "type": "uint256"
        }
      ],
      "name": "URI",
      "type": "event"
    },
    {
      "inputs": [],
      "name": "balance",
      "outputs": [
        {
          "internalType": "uint256",
          "name": "",
          "type": "uint256"
        }
      ],
      "stateMutability": "view",
      "type": "function"
    },
    {
      "inputs": [
        {
          "internalType": "address",
          "name": "account",
          "type": "address"
        },
        {
          "internalType": "uint256",
          "name": "id",
          "type": "uint256"
        }
      ],
      "name": "balanceOf",
      "outputs": [
        {
          "internalType": "uint256",
          "name": "",
          "type": "uint256"
        }
      ],
      "stateMutability": "view",
      "type": "function"
    },
    {
      "inputs": [
        {
          "internalType": "address[]",
          "name": "accounts",
          "type": "address[]"
        },
        {
          "internalType": "uint256[]",
          "name": "ids",
          "type": "uint256[]"
        }
      ],
      "name": "balanceOfBatch",
      "outputs": [
        {
          "internalType": "uint256[]",
          "name": "",
          "type": "uint256[]"
        }
      ],
      "stateMutability": "view",
      "type": "function"
    },
    {
      "inputs": [],
      "name": "baseUri",
      "outputs": [
        {
          "internalType": "string",
          "name": "",
          "type": "string"
        }
      ],
      "stateMutability": "view",
      "type": "function"
    },
    {
      "inputs": [],
      "name": "getMessage",
      "outputs": [
        {
          "internalType": "string",
          "name": "",
          "type": "string"
        }
      ],
      "stateMutability": "pure",
      "type": "function"
    },
    {
      "inputs": [
        {
          "internalType": "address",
          "name": "account",
          "type": "address"
        },
        {
          "internalType": "address",
          "name": "operator",
          "type": "address"
        }
      ],
      "name": "isApprovedForAll",
      "outputs": [
        {
          "internalType": "bool",
          "name": "",
          "type": "bool"
        }
      ],
      "stateMutability": "view",
      "type": "function"
    },
    {
      "inputs": [
        {
          "internalType": "uint256",
          "name": "amount",
          "type": "uint256"
        }
      ],
      "name": "mint",
      "outputs": [],
      "stateMutability": "payable",
      "type": "function"
    },
    {
      "inputs": [],
      "name": "name",
      "outputs": [
        {
          "internalType": "string",
          "name": "",
          "type": "string"
        }
      ],
      "stateMutability": "view",
      "type": "function"
    },
    {
      "inputs": [],
      "name": "owner",
      "outputs": [
        {
          "internalType": "address",
          "name": "",
          "type": "address"
        }
      ],
      "stateMutability": "view",
      "type": "function"
    },
    {
      "inputs": [],
      "name": "renounceOwnership",
      "outputs": [],
      "stateMutability": "nonpayable",
      "type": "function"
    },
    {
      "inputs": [
        {
          "internalType": "address",
          "name": "from",
          "type": "address"
        },
        {
          "internalType": "address",
          "name": "to",
          "type": "address"
        },
        {
          "internalType": "uint256[]",
          "name": "ids",
          "type": "uint256[]"
        },
        {
          "internalType": "uint256[]",
          "name": "amounts",
          "type": "uint256[]"
        },
        {
          "internalType": "bytes",
          "name": "data",
          "type": "bytes"
        }
      ],
      "name": "safeBatchTransferFrom",
      "outputs": [],
      "stateMutability": "nonpayable",
      "type": "function"
    },
    {
      "inputs": [
        {
          "internalType": "address",
          "name": "from",
          "type": "address"
        },
        {
          "internalType": "address",
          "name": "to",
          "type": "address"
        },
        {
          "internalType": "uint256",
          "name": "id",
          "type": "uint256"
        },
        {
          "internalType": "uint256",
          "name": "amount",
          "type": "uint256"
        },
        {
          "internalType": "bytes",
          "name": "data",
          "type": "bytes"
        }
      ],
      "name": "safeTransferFrom",
      "outputs": [],
      "stateMutability": "nonpayable",
      "type": "function"
    },
    {
      "inputs": [
        {
          "internalType": "address",
          "name": "operator",
          "type": "address"
        },
        {
          "internalType": "bool",
          "name": "approved",
          "type": "bool"
        }
      ],
      "name": "setApprovalForAll",
      "outputs": [],
      "stateMutability": "nonpayable",
      "type": "function"
    },
    {
      "inputs": [
        {
          "internalType": "bytes4",
          "name": "interfaceId",
          "type": "bytes4"
        }
      ],
      "name": "supportsInterface",
      "outputs": [
        {
          "internalType": "bool",
          "name": "",
          "type": "bool"
        }
      ],
      "stateMutability": "view",
      "type": "function"
    },
    {
      "inputs": [],
      "name": "symbol",
      "outputs": [
        {
          "internalType": "string",
          "name": "",
          "type": "string"
        }
      ],
      "stateMutability": "view",
      "type": "function"
    },
    {
      "inputs": [],
      "name": "tokenCount",
      "outputs": [
        {
          "internalType": "uint256",
          "name": "",
          "type": "uint256"
        }
      ],
      "stateMutability": "view",
      "type": "function"
    },
    {
      "inputs": [
        {
          "internalType": "address",
          "name": "newOwner",
          "type": "address"
        }
      ],
      "name": "transferOwnership",
      "outputs": [],
      "stateMutability": "nonpayable",
      "type": "function"
    },
    {
      "inputs": [
        {
          "internalType": "uint256",
          "name": "_tokenId",
          "type": "uint256"
        }
      ],
      "name": "uri",
      "outputs": [
        {
          "internalType": "string",
          "name": "",
          "type": "string"
        }
      ],
      "stateMutability": "view",
      "type": "function"
    },
    {
      "inputs": [],
      "name": "withdraw",
      "outputs": [],
      "stateMutability": "nonpayable",
      "type": "function"
    }
  ],
  "bytecode": "0x60806040523480156200001157600080fd5b5060405162003ac938038062003ac98339818101604052810190620000379190620002ca565b806200004981620000be60201b60201c565b506200006a6200005e620000da60201b60201c565b620000e260201b60201c565b826004908051906020019062000082929190620001a8565b5081600590805190602001906200009b929190620001a8565b508060079080519060200190620000b4929190620001a8565b50505050620004db565b8060029080519060200190620000d6929190620001a8565b5050565b600033905090565b6000600360009054906101000a900473ffffffffffffffffffffffffffffffffffffffff16905081600360006101000a81548173ffffffffffffffffffffffffffffffffffffffff021916908373ffffffffffffffffffffffffffffffffffffffff1602179055508173ffffffffffffffffffffffffffffffffffffffff168173ffffffffffffffffffffffffffffffffffffffff167f8be0079c531659141344cd1fd0a4f28419497f9722a3daafe3b4186f6b6457e060405160405180910390a35050565b828054620001b69062000400565b90600052602060002090601f016020900481019282620001da576000855562000226565b82601f10620001f557805160ff191683800117855562000226565b8280016001018555821562000226579182015b828111156200022557825182559160200191906001019062000208565b5b50905062000235919062000239565b5090565b5b80821115620002545760008160009055506001016200023a565b5090565b60006200026f620002698462000394565b6200036b565b9050828152602081018484840111156200028857600080fd5b62000295848285620003ca565b509392505050565b600082601f830112620002af57600080fd5b8151620002c184826020860162000258565b91505092915050565b600080600060608486031215620002e057600080fd5b600084015167ffffffffffffffff811115620002fb57600080fd5b62000309868287016200029d565b935050602084015167ffffffffffffffff8111156200032757600080fd5b62000335868287016200029d565b925050604084015167ffffffffffffffff8111156200035357600080fd5b62000361868287016200029d565b9150509250925092565b6000620003776200038a565b905062000385828262000436565b919050565b6000604051905090565b600067ffffffffffffffff821115620003b257620003b16200049b565b5b620003bd82620004ca565b9050602081019050919050565b60005b83811015620003ea578082015181840152602081019050620003cd565b83811115620003fa576000848401525b50505050565b600060028204905060018216806200041957607f821691505b6020821081141562000430576200042f6200046c565b5b50919050565b6200044182620004ca565b810181811067ffffffffffffffff821117156200046357620004626200049b565b5b80604052505050565b7f4e487b7100000000000000000000000000000000000000000000000000000000600052602260045260246000fd5b7f4e487b7100000000000000000000000000000000000000000000000000000000600052604160045260246000fd5b6000601f19601f8301169050919050565b6135de80620004eb6000396000f3fe6080604052600436106101135760003560e01c806395d89b41116100a0578063b69ef8a811610064578063b69ef8a81461037f578063ce6d41de146103aa578063e985e9c5146103d5578063f242432a14610412578063f2fde38b1461043b57610113565b806395d89b41146102b95780639abc8320146102e45780639f181b5e1461030f578063a0712d681461033a578063a22cb4651461035657610113565b80632eb2c2d6116100e75780632eb2c2d6146101fa5780633ccfd60b146102235780634e1273f41461023a578063715018a6146102775780638da5cb5b1461028e57610113565b8062fdd58e1461011857806301ffc9a71461015557806306fdde03146101925780630e89341c146101bd575b600080fd5b34801561012457600080fd5b5061013f600480360381019061013a919061232e565b610464565b60405161014c9190612b94565b60405180910390f35b34801561016157600080fd5b5061017c600480360381019061017791906123d6565b61052d565b6040516101899190612997565b60405180910390f35b34801561019e57600080fd5b506101a761060f565b6040516101b491906129b2565b60405180910390f35b3480156101c957600080fd5b506101e460048036038101906101df9190612428565b61069d565b6040516101f191906129b2565b60405180910390f35b34801561020657600080fd5b50610221600480360381019061021c91906121a4565b6106d1565b005b34801561022f57600080fd5b50610238610772565b005b34801561024657600080fd5b50610261600480360381019061025c919061236a565b610837565b60405161026e919061293e565b60405180910390f35b34801561028357600080fd5b5061028c6109e8565b005b34801561029a57600080fd5b506102a3610a70565b6040516102b09190612861565b60405180910390f35b3480156102c557600080fd5b506102ce610a9a565b6040516102db91906129b2565b60405180910390f35b3480156102f057600080fd5b506102f9610b28565b60405161030691906129b2565b60405180910390f35b34801561031b57600080fd5b50610324610bb6565b6040516103319190612b94565b60405180910390f35b610354600480360381019061034f9190612428565b610bbc565b005b34801561036257600080fd5b5061037d600480360381019061037891906122f2565b610c41565b005b34801561038b57600080fd5b50610394610c57565b6040516103a19190612b94565b60405180910390f35b3480156103b657600080fd5b506103bf610c5f565b6040516103cc91906129b2565b60405180910390f35b3480156103e157600080fd5b506103fc60048036038101906103f79190612168565b610c9c565b6040516104099190612997565b60405180910390f35b34801561041e57600080fd5b5061043960048036038101906104349190612263565b610d30565b005b34801561044757600080fd5b50610462600480360381019061045d919061213f565b610dd1565b005b60008073ffffffffffffffffffffffffffffffffffffffff168373ffffffffffffffffffffffffffffffffffffffff1614156104d5576040517f08c379a00000000000000000000000000000000000000000000000000000000081526004016104cc90612a14565b60405180910390fd5b60008083815260200190815260200160002060008473ffffffffffffffffffffffffffffffffffffffff1673ffffffffffffffffffffffffffffffffffffffff16815260200190815260200160002054905092915050565b60007fd9b67a26000000000000000000000000000000000000000000000000000000007bffffffffffffffffffffffffffffffffffffffffffffffffffffffff1916827bffffffffffffffffffffffffffffffffffffffffffffffffffffffff191614806105f857507f0e89341c000000000000000000000000000000000000000000000000000000007bffffffffffffffffffffffffffffffffffffffffffffffffffffffff1916827bffffffffffffffffffffffffffffffffffffffffffffffffffffffff1916145b80610608575061060782610ec9565b5b9050919050565b6004805461061c90612e88565b80601f016020809104026020016040519081016040528092919081815260200182805461064890612e88565b80156106955780601f1061066a57610100808354040283529160200191610695565b820191906000526020600020905b81548152906001019060200180831161067857829003601f168201915b505050505081565b606060076106aa83610f33565b6040516020016106bb929190612832565b6040516020818303038152906040529050919050565b6106d96110e0565b73ffffffffffffffffffffffffffffffffffffffff168573ffffffffffffffffffffffffffffffffffffffff16148061071f575061071e856107196110e0565b610c9c565b5b61075e576040517f08c379a000000000000000000000000000000000000000000000000000000000815260040161075590612ab4565b60405180910390fd5b61076b85858585856110e8565b5050505050565b61077a6110e0565b73ffffffffffffffffffffffffffffffffffffffff16610798610a70565b73ffffffffffffffffffffffffffffffffffffffff16146107ee576040517f08c379a00000000000000000000000000000000000000000000000000000000081526004016107e590612af4565b60405180910390fd5b3373ffffffffffffffffffffffffffffffffffffffff166108fc479081150290604051600060405180830381858888f19350505050158015610834573d6000803e3d6000fd5b50565b6060815183511461087d576040517f08c379a000000000000000000000000000000000000000000000000000000000815260040161087490612b34565b60405180910390fd5b6000835167ffffffffffffffff8111156108c0577f4e487b7100000000000000000000000000000000000000000000000000000000600052604160045260246000fd5b6040519080825280602002602001820160405280156108ee5781602001602082028036833780820191505090505b50905060005b84518110156109dd57610987858281518110610939577f4e487b7100000000000000000000000000000000000000000000000000000000600052603260045260246000fd5b602002602001015185838151811061097a577f4e487b7100000000000000000000000000000000000000000000000000000000600052603260045260246000fd5b6020026020010151610464565b8282815181106109c0577f4e487b7100000000000000000000000000000000000000000000000000000000600052603260045260246000fd5b602002602001018181525050806109d690612eeb565b90506108f4565b508091505092915050565b6109f06110e0565b73ffffffffffffffffffffffffffffffffffffffff16610a0e610a70565b73ffffffffffffffffffffffffffffffffffffffff1614610a64576040517f08c379a0000000000000000000000000000000000000000000000000000000008152600401610a5b90612af4565b60405180910390fd5b610a6e6000611448565b565b6000600360009054906101000a900473ffffffffffffffffffffffffffffffffffffffff16905090565b60058054610aa790612e88565b80601f0160208091040260200160405190810160405280929190818152602001828054610ad390612e88565b8015610b205780601f10610af557610100808354040283529160200191610b20565b820191906000526020600020905b815481529060010190602001808311610b0357829003601f168201915b505050505081565b60078054610b3590612e88565b80601f0160208091040260200160405190810160405280929190818152602001828054610b6190612e88565b8015610bae5780601f10610b8357610100808354040283529160200191610bae565b820191906000526020600020905b815481529060010190602001808311610b9157829003601f168201915b505050505081565b60065481565b67016345785d8a0000341015610c07576040517f08c379a0000000000000000000000000000000000000000000000000000000008152600401610bfe90612a74565b60405180910390fd5b600160066000828254610c1a9190612d17565b92505081905550610c3e33600654836040518060200160405280600081525061150e565b50565b610c53610c4c6110e0565b83836116a4565b5050565b600047905090565b60606040518060400160405280601681526020017f5468697320776f726b7320617320696e74656e64656400000000000000000000815250905090565b6000600160008473ffffffffffffffffffffffffffffffffffffffff1673ffffffffffffffffffffffffffffffffffffffff16815260200190815260200160002060008373ffffffffffffffffffffffffffffffffffffffff1673ffffffffffffffffffffffffffffffffffffffff16815260200190815260200160002060009054906101000a900460ff16905092915050565b610d386110e0565b73ffffffffffffffffffffffffffffffffffffffff168573ffffffffffffffffffffffffffffffffffffffff161480610d7e5750610d7d85610d786110e0565b610c9c565b5b610dbd576040517f08c379a0000000000000000000000000000000000000000000000000000000008152600401610db490612a54565b60405180910390fd5b610dca8585858585611811565b5050505050565b610dd96110e0565b73ffffffffffffffffffffffffffffffffffffffff16610df7610a70565b73ffffffffffffffffffffffffffffffffffffffff1614610e4d576040517f08c379a0000000000000000000000000000000000000000000000000000000008152600401610e4490612af4565b60405180910390fd5b600073ffffffffffffffffffffffffffffffffffffffff168173ffffffffffffffffffffffffffffffffffffffff161415610ebd576040517f08c379a0000000000000000000000000000000000000000000000000000000008152600401610eb490612a34565b60405180910390fd5b610ec681611448565b50565b60007f01ffc9a7000000000000000000000000000000000000000000000000000000007bffffffffffffffffffffffffffffffffffffffffffffffffffffffff1916827bffffffffffffffffffffffffffffffffffffffffffffffffffffffff1916149050919050565b60606000821415610f7b576040518060400160405280600181526020017f300000000000000000000000000000000000000000000000000000000000000081525090506110db565b600082905060005b60008214610fad578080610f9690612eeb565b915050600a82610fa69190612d6d565b9150610f83565b60008167ffffffffffffffff811115610fef577f4e487b7100000000000000000000000000000000000000000000000000000000600052604160045260246000fd5b6040519080825280601f01601f1916602001820160405280156110215781602001600182028036833780820191505090505b5090505b600085146110d45760018261103a9190612d9e565b9150600a856110499190612f34565b60306110559190612d17565b60f81b818381518110611091577f4e487b7100000000000000000000000000000000000000000000000000000000600052603260045260246000fd5b60200101907effffffffffffffffffffffffffffffffffffffffffffffffffffffffffffff1916908160001a905350600a856110cd9190612d6d565b9450611025565b8093505050505b919050565b600033905090565b815183511461112c576040517f08c379a000000000000000000000000000000000000000000000000000000000815260040161112390612b54565b60405180910390fd5b600073ffffffffffffffffffffffffffffffffffffffff168473ffffffffffffffffffffffffffffffffffffffff16141561119c576040517f08c379a000000000000000000000000000000000000000000000000000000000815260040161119390612a94565b60405180910390fd5b60006111a66110e0565b90506111b6818787878787611a93565b60005b84518110156113b35760008582815181106111fd577f4e487b7100000000000000000000000000000000000000000000000000000000600052603260045260246000fd5b602002602001015190506000858381518110611242577f4e487b7100000000000000000000000000000000000000000000000000000000600052603260045260246000fd5b60200260200101519050600080600084815260200190815260200160002060008b73ffffffffffffffffffffffffffffffffffffffff1673ffffffffffffffffffffffffffffffffffffffff168152602001908152602001600020549050818110156112e3576040517f08c379a00000000000000000000000000000000000000000000000000000000081526004016112da90612ad4565b60405180910390fd5b81810360008085815260200190815260200160002060008c73ffffffffffffffffffffffffffffffffffffffff1673ffffffffffffffffffffffffffffffffffffffff168152602001908152602001600020819055508160008085815260200190815260200160002060008b73ffffffffffffffffffffffffffffffffffffffff1673ffffffffffffffffffffffffffffffffffffffff16815260200190815260200160002060008282546113989190612d17565b92505081905550505050806113ac90612eeb565b90506111b9565b508473ffffffffffffffffffffffffffffffffffffffff168673ffffffffffffffffffffffffffffffffffffffff168273ffffffffffffffffffffffffffffffffffffffff167f4a39dc06d4c0dbc64b70af90fd698a233a518aa5d07e595d983b8c0526c8f7fb878760405161142a929190612960565b60405180910390a4611440818787878787611a9b565b505050505050565b6000600360009054906101000a900473ffffffffffffffffffffffffffffffffffffffff16905081600360006101000a81548173ffffffffffffffffffffffffffffffffffffffff021916908373ffffffffffffffffffffffffffffffffffffffff1602179055508173ffffffffffffffffffffffffffffffffffffffff168173ffffffffffffffffffffffffffffffffffffffff167f8be0079c531659141344cd1fd0a4f28419497f9722a3daafe3b4186f6b6457e060405160405180910390a35050565b600073ffffffffffffffffffffffffffffffffffffffff168473ffffffffffffffffffffffffffffffffffffffff16141561157e576040517f08c379a000000000000000000000000000000000000000000000000000000000815260040161157590612b74565b60405180910390fd5b60006115886110e0565b90506115a98160008761159a88611c82565b6115a388611c82565b87611a93565b8260008086815260200190815260200160002060008773ffffffffffffffffffffffffffffffffffffffff1673ffffffffffffffffffffffffffffffffffffffff16815260200190815260200160002060008282546116089190612d17565b925050819055508473ffffffffffffffffffffffffffffffffffffffff16600073ffffffffffffffffffffffffffffffffffffffff168273ffffffffffffffffffffffffffffffffffffffff167fc3d58168c5ae7397731d063d5bbf3d657854427343f4c083240f7aacaa2d0f628787604051611686929190612baf565b60405180910390a461169d81600087878787611d48565b5050505050565b8173ffffffffffffffffffffffffffffffffffffffff168373ffffffffffffffffffffffffffffffffffffffff161415611713576040517f08c379a000000000000000000000000000000000000000000000000000000000815260040161170a90612b14565b60405180910390fd5b80600160008573ffffffffffffffffffffffffffffffffffffffff1673ffffffffffffffffffffffffffffffffffffffff16815260200190815260200160002060008473ffffffffffffffffffffffffffffffffffffffff1673ffffffffffffffffffffffffffffffffffffffff16815260200190815260200160002060006101000a81548160ff0219169083151502179055508173ffffffffffffffffffffffffffffffffffffffff168373ffffffffffffffffffffffffffffffffffffffff167f17307eab39ab6107e8899845ad3d59bd9653f200f220920489ca2b5937696c31836040516118049190612997565b60405180910390a3505050565b600073ffffffffffffffffffffffffffffffffffffffff168473ffffffffffffffffffffffffffffffffffffffff161415611881576040517f08c379a000000000000000000000000000000000000000000000000000000000815260040161187890612a94565b60405180910390fd5b600061188b6110e0565b90506118ab81878761189c88611c82565b6118a588611c82565b87611a93565b600080600086815260200190815260200160002060008873ffffffffffffffffffffffffffffffffffffffff1673ffffffffffffffffffffffffffffffffffffffff16815260200190815260200160002054905083811015611942576040517f08c379a000000000000000000000000000000000000000000000000000000000815260040161193990612ad4565b60405180910390fd5b83810360008087815260200190815260200160002060008973ffffffffffffffffffffffffffffffffffffffff1673ffffffffffffffffffffffffffffffffffffffff168152602001908152602001600020819055508360008087815260200190815260200160002060008873ffffffffffffffffffffffffffffffffffffffff1673ffffffffffffffffffffffffffffffffffffffff16815260200190815260200160002060008282546119f79190612d17565b925050819055508573ffffffffffffffffffffffffffffffffffffffff168773ffffffffffffffffffffffffffffffffffffffff168373ffffffffffffffffffffffffffffffffffffffff167fc3d58168c5ae7397731d063d5bbf3d657854427343f4c083240f7aacaa2d0f628888604051611a74929190612baf565b60405180910390a4611a8a828888888888611d48565b50505050505050565b505050505050565b611aba8473ffffffffffffffffffffffffffffffffffffffff16611f2f565b15611c7a578373ffffffffffffffffffffffffffffffffffffffff1663bc197c8187878686866040518663ffffffff1660e01b8152600401611b0095949392919061287c565b602060405180830381600087803b158015611b1a57600080fd5b505af1925050508015611b4b57506040513d601f19601f82011682018060405250810190611b4891906123ff565b60015b611bf157611b57613021565b806308c379a01415611bb45750611b6c6134b6565b80611b775750611bb6565b806040517f08c379a0000000000000000000000000000000000000000000000000000000008152600401611bab91906129b2565b60405180910390fd5b505b6040517f08c379a0000000000000000000000000000000000000000000000000000000008152600401611be8906129d4565b60405180910390fd5b63bc197c8160e01b7bffffffffffffffffffffffffffffffffffffffffffffffffffffffff1916817bffffffffffffffffffffffffffffffffffffffffffffffffffffffff191614611c78576040517f08c379a0000000000000000000000000000000000000000000000000000000008152600401611c6f906129f4565b60405180910390fd5b505b505050505050565b60606000600167ffffffffffffffff811115611cc7577f4e487b7100000000000000000000000000000000000000000000000000000000600052604160045260246000fd5b604051908082528060200260200182016040528015611cf55781602001602082028036833780820191505090505b5090508281600081518110611d33577f4e487b7100000000000000000000000000000000000000000000000000000000600052603260045260246000fd5b60200260200101818152505080915050919050565b611d678473ffffffffffffffffffffffffffffffffffffffff16611f2f565b15611f27578373ffffffffffffffffffffffffffffffffffffffff1663f23a6e6187878686866040518663ffffffff1660e01b8152600401611dad9594939291906128e4565b602060405180830381600087803b158015611dc757600080fd5b505af1925050508015611df857506040513d601f19601f82011682018060405250810190611df591906123ff565b60015b611e9e57611e04613021565b806308c379a01415611e615750611e196134b6565b80611e245750611e63565b806040517f08c379a0000000000000000000000000000000000000000000000000000000008152600401611e5891906129b2565b60405180910390fd5b505b6040517f08c379a0000000000000000000000000000000000000000000000000000000008152600401611e95906129d4565b60405180910390fd5b63f23a6e6160e01b7bffffffffffffffffffffffffffffffffffffffffffffffffffffffff1916817bffffffffffffffffffffffffffffffffffffffffffffffffffffffff191614611f25576040517f08c379a0000000000000000000000000000000000000000000000000000000008152600401611f1c906129f4565b60405180910390fd5b505b505050505050565b600080823b905060008111915050919050565b6000611f55611f5084612bfd565b612bd8565b90508083825260208201905082856020860282011115611f7457600080fd5b60005b85811015611fa45781611f8a8882612058565b845260208401935060208301925050600181019050611f77565b5050509392505050565b6000611fc1611fbc84612c29565b612bd8565b90508083825260208201905082856020860282011115611fe057600080fd5b60005b858110156120105781611ff6888261212a565b845260208401935060208301925050600181019050611fe3565b5050509392505050565b600061202d61202884612c55565b612bd8565b90508281526020810184848401111561204557600080fd5b612050848285612e46565b509392505050565b6000813590506120678161354c565b92915050565b600082601f83011261207e57600080fd5b813561208e848260208601611f42565b91505092915050565b600082601f8301126120a857600080fd5b81356120b8848260208601611fae565b91505092915050565b6000813590506120d081613563565b92915050565b6000813590506120e58161357a565b92915050565b6000815190506120fa8161357a565b92915050565b600082601f83011261211157600080fd5b813561212184826020860161201a565b91505092915050565b60008135905061213981613591565b92915050565b60006020828403121561215157600080fd5b600061215f84828501612058565b91505092915050565b6000806040838503121561217b57600080fd5b600061218985828601612058565b925050602061219a85828601612058565b9150509250929050565b600080600080600060a086880312156121bc57600080fd5b60006121ca88828901612058565b95505060206121db88828901612058565b945050604086013567ffffffffffffffff8111156121f857600080fd5b61220488828901612097565b935050606086013567ffffffffffffffff81111561222157600080fd5b61222d88828901612097565b925050608086013567ffffffffffffffff81111561224a57600080fd5b61225688828901612100565b9150509295509295909350565b600080600080600060a0868803121561227b57600080fd5b600061228988828901612058565b955050602061229a88828901612058565b94505060406122ab8882890161212a565b93505060606122bc8882890161212a565b925050608086013567ffffffffffffffff8111156122d957600080fd5b6122e588828901612100565b9150509295509295909350565b6000806040838503121561230557600080fd5b600061231385828601612058565b9250506020612324858286016120c1565b9150509250929050565b6000806040838503121561234157600080fd5b600061234f85828601612058565b92505060206123608582860161212a565b9150509250929050565b6000806040838503121561237d57600080fd5b600083013567ffffffffffffffff81111561239757600080fd5b6123a38582860161206d565b925050602083013567ffffffffffffffff8111156123c057600080fd5b6123cc85828601612097565b9150509250929050565b6000602082840312156123e857600080fd5b60006123f6848285016120d6565b91505092915050565b60006020828403121561241157600080fd5b600061241f848285016120eb565b91505092915050565b60006020828403121561243a57600080fd5b60006124488482850161212a565b91505092915050565b600061245d8383612814565b60208301905092915050565b61247281612dd2565b82525050565b600061248382612cab565b61248d8185612cd9565b935061249883612c86565b8060005b838110156124c95781516124b08882612451565b97506124bb83612ccc565b92505060018101905061249c565b5085935050505092915050565b6124df81612de4565b82525050565b60006124f082612cb6565b6124fa8185612cea565b935061250a818560208601612e55565b61251381613043565b840191505092915050565b600061252982612cc1565b6125338185612cfb565b9350612543818560208601612e55565b61254c81613043565b840191505092915050565b600061256282612cc1565b61256c8185612d0c565b935061257c818560208601612e55565b80840191505092915050565b6000815461259581612e88565b61259f8186612d0c565b945060018216600081146125ba57600181146125cb576125fe565b60ff198316865281860193506125fe565b6125d485612c96565b60005b838110156125f6578154818901526001820191506020810190506125d7565b838801955050505b50505092915050565b6000612614603483612cfb565b915061261f82613061565b604082019050919050565b6000612637602883612cfb565b9150612642826130b0565b604082019050919050565b600061265a602b83612cfb565b9150612665826130ff565b604082019050919050565b600061267d602683612cfb565b91506126888261314e565b604082019050919050565b60006126a0602983612cfb565b91506126ab8261319d565b604082019050919050565b60006126c3602883612cfb565b91506126ce826131ec565b604082019050919050565b60006126e6602583612cfb565b91506126f18261323b565b604082019050919050565b6000612709603283612cfb565b91506127148261328a565b604082019050919050565b600061272c602a83612cfb565b9150612737826132d9565b604082019050919050565b600061274f600583612d0c565b915061275a82613328565b600582019050919050565b6000612772602083612cfb565b915061277d82613351565b602082019050919050565b6000612795602983612cfb565b91506127a08261337a565b604082019050919050565b60006127b8602983612cfb565b91506127c3826133c9565b604082019050919050565b60006127db602883612cfb565b91506127e682613418565b604082019050919050565b60006127fe602183612cfb565b915061280982613467565b604082019050919050565b61281d81612e3c565b82525050565b61282c81612e3c565b82525050565b600061283e8285612588565b915061284a8284612557565b915061285582612742565b91508190509392505050565b60006020820190506128766000830184612469565b92915050565b600060a0820190506128916000830188612469565b61289e6020830187612469565b81810360408301526128b08186612478565b905081810360608301526128c48185612478565b905081810360808301526128d881846124e5565b90509695505050505050565b600060a0820190506128f96000830188612469565b6129066020830187612469565b6129136040830186612823565b6129206060830185612823565b818103608083015261293281846124e5565b90509695505050505050565b600060208201905081810360008301526129588184612478565b905092915050565b6000604082019050818103600083015261297a8185612478565b9050818103602083015261298e8184612478565b90509392505050565b60006020820190506129ac60008301846124d6565b92915050565b600060208201905081810360008301526129cc818461251e565b905092915050565b600060208201905081810360008301526129ed81612607565b9050919050565b60006020820190508181036000830152612a0d8161262a565b9050919050565b60006020820190508181036000830152612a2d8161264d565b9050919050565b60006020820190508181036000830152612a4d81612670565b9050919050565b60006020820190508181036000830152612a6d81612693565b9050919050565b60006020820190508181036000830152612a8d816126b6565b9050919050565b60006020820190508181036000830152612aad816126d9565b9050919050565b60006020820190508181036000830152612acd816126fc565b9050919050565b60006020820190508181036000830152612aed8161271f565b9050919050565b60006020820190508181036000830152612b0d81612765565b9050919050565b60006020820190508181036000830152612b2d81612788565b9050919050565b60006020820190508181036000830152612b4d816127ab565b9050919050565b60006020820190508181036000830152612b6d816127ce565b9050919050565b60006020820190508181036000830152612b8d816127f1565b9050919050565b6000602082019050612ba96000830184612823565b92915050565b6000604082019050612bc46000830185612823565b612bd16020830184612823565b9392505050565b6000612be2612bf3565b9050612bee8282612eba565b919050565b6000604051905090565b600067ffffffffffffffff821115612c1857612c17612ff2565b5b602082029050602081019050919050565b600067ffffffffffffffff821115612c4457612c43612ff2565b5b602082029050602081019050919050565b600067ffffffffffffffff821115612c7057612c6f612ff2565b5b612c7982613043565b9050602081019050919050565b6000819050602082019050919050565b60008190508160005260206000209050919050565b600081519050919050565b600081519050919050565b600081519050919050565b6000602082019050919050565b600082825260208201905092915050565b600082825260208201905092915050565b600082825260208201905092915050565b600081905092915050565b6000612d2282612e3c565b9150612d2d83612e3c565b9250827fffffffffffffffffffffffffffffffffffffffffffffffffffffffffffffffff03821115612d6257612d61612f65565b5b828201905092915050565b6000612d7882612e3c565b9150612d8383612e3c565b925082612d9357612d92612f94565b5b828204905092915050565b6000612da982612e3c565b9150612db483612e3c565b925082821015612dc757612dc6612f65565b5b828203905092915050565b6000612ddd82612e1c565b9050919050565b60008115159050919050565b60007fffffffff0000000000000000000000000000000000000000000000000000000082169050919050565b600073ffffffffffffffffffffffffffffffffffffffff82169050919050565b6000819050919050565b82818337600083830152505050565b60005b83811015612e73578082015181840152602081019050612e58565b83811115612e82576000848401525b50505050565b60006002820490506001821680612ea057607f821691505b60208210811415612eb457612eb3612fc3565b5b50919050565b612ec382613043565b810181811067ffffffffffffffff82111715612ee257612ee1612ff2565b5b80604052505050565b6000612ef682612e3c565b91507fffffffffffffffffffffffffffffffffffffffffffffffffffffffffffffffff821415612f2957612f28612f65565b5b600182019050919050565b6000612f3f82612e3c565b9150612f4a83612e3c565b925082612f5a57612f59612f94565b5b828206905092915050565b7f4e487b7100000000000000000000000000000000000000000000000000000000600052601160045260246000fd5b7f4e487b7100000000000000000000000000000000000000000000000000000000600052601260045260246000fd5b7f4e487b7100000000000000000000000000000000000000000000000000000000600052602260045260246000fd5b7f4e487b7100000000000000000000000000000000000000000000000000000000600052604160045260246000fd5b600060033d11156130405760046000803e61303d600051613054565b90505b90565b6000601f19601f8301169050919050565b60008160e01c9050919050565b7f455243313135353a207472616e7366657220746f206e6f6e204552433131353560008201527f526563656976657220696d706c656d656e746572000000000000000000000000602082015250565b7f455243313135353a204552433131353552656365697665722072656a6563746560008201527f6420746f6b656e73000000000000000000000000000000000000000000000000602082015250565b7f455243313135353a2062616c616e636520717565727920666f7220746865207a60008201527f65726f2061646472657373000000000000000000000000000000000000000000602082015250565b7f4f776e61626c653a206e6577206f776e657220697320746865207a65726f206160008201527f6464726573730000000000000000000000000000000000000000000000000000602082015250565b7f455243313135353a2063616c6c6572206973206e6f74206f776e6572206e6f7260008201527f20617070726f7665640000000000000000000000000000000000000000000000602082015250565b7f4e6f7420656e6f756768204554482073656e743b20706c65617365206368656360008201527f6b20707269636521000000000000000000000000000000000000000000000000602082015250565b7f455243313135353a207472616e7366657220746f20746865207a65726f20616460008201527f6472657373000000000000000000000000000000000000000000000000000000602082015250565b7f455243313135353a207472616e736665722063616c6c6572206973206e6f742060008201527f6f776e6572206e6f7220617070726f7665640000000000000000000000000000602082015250565b7f455243313135353a20696e73756666696369656e742062616c616e636520666f60008201527f72207472616e7366657200000000000000000000000000000000000000000000602082015250565b7f2e6a736f6e000000000000000000000000000000000000000000000000000000600082015250565b7f4f776e61626c653a2063616c6c6572206973206e6f7420746865206f776e6572600082015250565b7f455243313135353a2073657474696e6720617070726f76616c2073746174757360008201527f20666f722073656c660000000000000000000000000000000000000000000000602082015250565b7f455243313135353a206163636f756e747320616e6420696473206c656e67746860008201527f206d69736d617463680000000000000000000000000000000000000000000000602082015250565b7f455243313135353a2069647320616e6420616d6f756e7473206c656e6774682060008201527f6d69736d61746368000000000000000000000000000000000000000000000000602082015250565b7f455243313135353a206d696e7420746f20746865207a65726f2061646472657360008201527f7300000000000000000000000000000000000000000000000000000000000000602082015250565b600060443d10156134c657613549565b6134ce612bf3565b60043d036004823e80513d602482011167ffffffffffffffff821117156134f6575050613549565b808201805167ffffffffffffffff8111156135145750505050613549565b80602083010160043d038501811115613531575050505050613549565b61354082602001850186612eba565b82955050505050505b90565b61355581612dd2565b811461356057600080fd5b50565b61356c81612de4565b811461357757600080fd5b50565b61358381612df0565b811461358e57600080fd5b50565b61359a81612e3c565b81146135a557600080fd5b5056fea2646970667358221220a29dd9c799a384d1a643c2eb2ebf29d8d43a0d0d1eea93a2fc7142edb830c8b964736f6c63430008020033",
  "linkReferences": {},
  "deployedLinkReferences": {}
}