{
  "_format": "hh-sol-artifact-1",
  "contractName": "Derbie",
  "sourceName": "contracts/Derbie.sol",
  "abi": [
    {
      "inputs": [
        {
          "internalType": "string",
          "name": "_name",
          "type": "string"
        },
        {
          "internalType": "string",
          "name": "_symbol",
          "type": "string"
        },
        {
          "internalType": "string",
          "name": "_baseUri",
          "type": "string"
        }
      ],
      "stateMutability": "nonpayable",
      "type": "constructor"
    },
    {
      "anonymous": false,
      "inputs": [
        {
          "indexed": true,
          "internalType": "address",
          "name": "account",
          "type": "address"
        },
        {
          "indexed": true,
          "internalType": "address",
          "name": "operator",
          "type": "address"
        },
        {
          "indexed": false,
          "internalType": "bool",
          "name": "approved",
          "type": "bool"
        }
      ],
      "name": "ApprovalForAll",
      "type": "event"
    },
    {
      "anonymous": false,
      "inputs": [
        {
          "indexed": true,
          "internalType": "address",
          "name": "previousOwner",
          "type": "address"
        },
        {
          "indexed": true,
          "internalType": "address",
          "name": "newOwner",
          "type": "address"
        }
      ],
      "name": "OwnershipTransferred",
      "type": "event"
    },
    {
      "anonymous": false,
      "inputs": [
        {
          "indexed": true,
          "internalType": "address",
          "name": "operator",
          "type": "address"
        },
        {
          "indexed": true,
          "internalType": "address",
          "name": "from",
          "type": "address"
        },
        {
          "indexed": true,
          "internalType": "address",
          "name": "to",
          "type": "address"
        },
        {
          "indexed": false,
          "internalType": "uint256[]",
          "name": "ids",
          "type": "uint256[]"
        },
        {
          "indexed": false,
          "internalType": "uint256[]",
          "name": "values",
          "type": "uint256[]"
        }
      ],
      "name": "TransferBatch",
      "type": "event"
    },
    {
      "anonymous": false,
      "inputs": [
        {
          "indexed": true,
          "internalType": "address",
          "name": "operator",
          "type": "address"
        },
        {
          "indexed": true,
          "internalType": "address",
          "name": "from",
          "type": "address"
        },
        {
          "indexed": true,
          "internalType": "address",
          "name": "to",
          "type": "address"
        },
        {
          "indexed": false,
          "internalType": "uint256",
          "name": "id",
          "type": "uint256"
        },
        {
          "indexed": false,
          "internalType": "uint256",
          "name": "value",
          "type": "uint256"
        }
      ],
      "name": "TransferSingle",
      "type": "event"
    },
    {
      "anonymous": false,
      "inputs": [
        {
          "indexed": false,
          "internalType": "string",
          "name": "value",
          "type": "string"
        },
        {
          "indexed": true,
          "internalType": "uint256",
          "name": "id",
          "type": "uint256"
        }
      ],
      "name": "URI",
      "type": "event"
    },
    {
      "inputs": [
        {
          "internalType": "address",
          "name": "account",
          "type": "address"
        },
        {
          "internalType": "uint256",
          "name": "id",
          "type": "uint256"
        }
      ],
      "name": "balanceOf",
      "outputs": [
        {
          "internalType": "uint256",
          "name": "",
          "type": "uint256"
        }
      ],
      "stateMutability": "view",
      "type": "function"
    },
    {
      "inputs": [],
      "name": "balanceOf",
      "outputs": [
        {
          "internalType": "uint256",
          "name": "",
          "type": "uint256"
        }
      ],
      "stateMutability": "view",
      "type": "function"
    },
    {
      "inputs": [
        {
          "internalType": "address[]",
          "name": "accounts",
          "type": "address[]"
        },
        {
          "internalType": "uint256[]",
          "name": "ids",
          "type": "uint256[]"
        }
      ],
      "name": "balanceOfBatch",
      "outputs": [
        {
          "internalType": "uint256[]",
          "name": "",
          "type": "uint256[]"
        }
      ],
      "stateMutability": "view",
      "type": "function"
    },
    {
      "inputs": [],
      "name": "baseUri",
      "outputs": [
        {
          "internalType": "string",
          "name": "",
          "type": "string"
        }
      ],
      "stateMutability": "view",
      "type": "function"
    },
    {
      "inputs": [],
      "name": "getMessage",
      "outputs": [
        {
          "internalType": "string",
          "name": "",
          "type": "string"
        }
      ],
      "stateMutability": "pure",
      "type": "function"
    },
    {
      "inputs": [
        {
          "internalType": "address",
          "name": "account",
          "type": "address"
        },
        {
          "internalType": "address",
          "name": "operator",
          "type": "address"
        }
      ],
      "name": "isApprovedForAll",
      "outputs": [
        {
          "internalType": "bool",
          "name": "",
          "type": "bool"
        }
      ],
      "stateMutability": "view",
      "type": "function"
    },
    {
      "inputs": [
        {
          "internalType": "uint256",
          "name": "amount",
          "type": "uint256"
        }
      ],
      "name": "mint",
      "outputs": [],
      "stateMutability": "payable",
      "type": "function"
    },
    {
      "inputs": [],
      "name": "name",
      "outputs": [
        {
          "internalType": "string",
          "name": "",
          "type": "string"
        }
      ],
      "stateMutability": "view",
      "type": "function"
    },
    {
      "inputs": [],
      "name": "owner",
      "outputs": [
        {
          "internalType": "address",
          "name": "",
          "type": "address"
        }
      ],
      "stateMutability": "view",
      "type": "function"
    },
    {
      "inputs": [],
      "name": "renounceOwnership",
      "outputs": [],
      "stateMutability": "nonpayable",
      "type": "function"
    },
    {
      "inputs": [
        {
          "internalType": "address",
          "name": "from",
          "type": "address"
        },
        {
          "internalType": "address",
          "name": "to",
          "type": "address"
        },
        {
          "internalType": "uint256[]",
          "name": "ids",
          "type": "uint256[]"
        },
        {
          "internalType": "uint256[]",
          "name": "amounts",
          "type": "uint256[]"
        },
        {
          "internalType": "bytes",
          "name": "data",
          "type": "bytes"
        }
      ],
      "name": "safeBatchTransferFrom",
      "outputs": [],
      "stateMutability": "nonpayable",
      "type": "function"
    },
    {
      "inputs": [
        {
          "internalType": "address",
          "name": "from",
          "type": "address"
        },
        {
          "internalType": "address",
          "name": "to",
          "type": "address"
        },
        {
          "internalType": "uint256",
          "name": "id",
          "type": "uint256"
        },
        {
          "internalType": "uint256",
          "name": "amount",
          "type": "uint256"
        },
        {
          "internalType": "bytes",
          "name": "data",
          "type": "bytes"
        }
      ],
      "name": "safeTransferFrom",
      "outputs": [],
      "stateMutability": "nonpayable",
      "type": "function"
    },
    {
      "inputs": [
        {
          "internalType": "address",
          "name": "operator",
          "type": "address"
        },
        {
          "internalType": "bool",
          "name": "approved",
          "type": "bool"
        }
      ],
      "name": "setApprovalForAll",
      "outputs": [],
      "stateMutability": "nonpayable",
      "type": "function"
    },
    {
      "inputs": [
        {
          "internalType": "bytes4",
          "name": "interfaceId",
          "type": "bytes4"
        }
      ],
      "name": "supportsInterface",
      "outputs": [
        {
          "internalType": "bool",
          "name": "",
          "type": "bool"
        }
      ],
      "stateMutability": "view",
      "type": "function"
    },
    {
      "inputs": [],
      "name": "symbol",
      "outputs": [
        {
          "internalType": "string",
          "name": "",
          "type": "string"
        }
      ],
      "stateMutability": "view",
      "type": "function"
    },
    {
      "inputs": [],
      "name": "tokenCount",
      "outputs": [
        {
          "internalType": "uint256",
          "name": "",
          "type": "uint256"
        }
      ],
      "stateMutability": "view",
      "type": "function"
    },
    {
      "inputs": [
        {
          "internalType": "address",
          "name": "newOwner",
          "type": "address"
        }
      ],
      "name": "transferOwnership",
      "outputs": [],
      "stateMutability": "nonpayable",
      "type": "function"
    },
    {
      "inputs": [
        {
          "internalType": "uint256",
          "name": "_tokenId",
          "type": "uint256"
        }
      ],
      "name": "uri",
      "outputs": [
        {
          "internalType": "string",
          "name": "",
          "type": "string"
        }
      ],
      "stateMutability": "view",
      "type": "function"
    },
    {
      "inputs": [],
      "name": "withdraw",
      "outputs": [],
      "stateMutability": "nonpayable",
      "type": "function"
    }
  ],
  "bytecode": "0x60806040523480156200001157600080fd5b5060405162003b4438038062003b448339818101604052810190620000379190620002ca565b806200004981620000be60201b60201c565b506200006a6200005e620000da60201b60201c565b620000e260201b60201c565b826004908051906020019062000082929190620001a8565b5081600590805190602001906200009b929190620001a8565b508060079080519060200190620000b4929190620001a8565b50505050620004db565b8060029080519060200190620000d6929190620001a8565b5050565b600033905090565b6000600360009054906101000a900473ffffffffffffffffffffffffffffffffffffffff16905081600360006101000a81548173ffffffffffffffffffffffffffffffffffffffff021916908373ffffffffffffffffffffffffffffffffffffffff1602179055508173ffffffffffffffffffffffffffffffffffffffff168173ffffffffffffffffffffffffffffffffffffffff167f8be0079c531659141344cd1fd0a4f28419497f9722a3daafe3b4186f6b6457e060405160405180910390a35050565b828054620001b69062000400565b90600052602060002090601f016020900481019282620001da576000855562000226565b82601f10620001f557805160ff191683800117855562000226565b8280016001018555821562000226579182015b828111156200022557825182559160200191906001019062000208565b5b50905062000235919062000239565b5090565b5b80821115620002545760008160009055506001016200023a565b5090565b60006200026f620002698462000394565b6200036b565b9050828152602081018484840111156200028857600080fd5b62000295848285620003ca565b509392505050565b600082601f830112620002af57600080fd5b8151620002c184826020860162000258565b91505092915050565b600080600060608486031215620002e057600080fd5b600084015167ffffffffffffffff811115620002fb57600080fd5b62000309868287016200029d565b935050602084015167ffffffffffffffff8111156200032757600080fd5b62000335868287016200029d565b925050604084015167ffffffffffffffff8111156200035357600080fd5b62000361868287016200029d565b9150509250925092565b6000620003776200038a565b905062000385828262000436565b919050565b6000604051905090565b600067ffffffffffffffff821115620003b257620003b16200049b565b5b620003bd82620004ca565b9050602081019050919050565b60005b83811015620003ea578082015181840152602081019050620003cd565b83811115620003fa576000848401525b50505050565b600060028204905060018216806200041957607f821691505b6020821081141562000430576200042f6200046c565b5b50919050565b6200044182620004ca565b810181811067ffffffffffffffff821117156200046357620004626200049b565b5b80604052505050565b7f4e487b7100000000000000000000000000000000000000000000000000000000600052602260045260246000fd5b7f4e487b7100000000000000000000000000000000000000000000000000000000600052604160045260246000fd5b6000601f19601f8301169050919050565b61365980620004eb6000396000f3fe6080604052600436106101135760003560e01c80638da5cb5b116100a0578063a22cb46511610064578063a22cb46514610381578063ce6d41de146103aa578063e985e9c5146103d5578063f242432a14610412578063f2fde38b1461043b57610113565b80638da5cb5b146102b957806395d89b41146102e45780639abc83201461030f5780639f181b5e1461033a578063a0712d681461036557610113565b80632eb2c2d6116100e75780632eb2c2d6146101fa5780633ccfd60b146102235780634e1273f41461023a578063715018a614610277578063722713f71461028e57610113565b8062fdd58e1461011857806301ffc9a71461015557806306fdde03146101925780630e89341c146101bd575b600080fd5b34801561012457600080fd5b5061013f600480360381019061013a91906123a9565b610464565b60405161014c9190612c0f565b60405180910390f35b34801561016157600080fd5b5061017c60048036038101906101779190612451565b61052d565b6040516101899190612a12565b60405180910390f35b34801561019e57600080fd5b506101a761060f565b6040516101b49190612a2d565b60405180910390f35b3480156101c957600080fd5b506101e460048036038101906101df91906124a3565b61069d565b6040516101f19190612a2d565b60405180910390f35b34801561020657600080fd5b50610221600480360381019061021c919061221f565b6106d1565b005b34801561022f57600080fd5b50610238610772565b005b34801561024657600080fd5b50610261600480360381019061025c91906123e5565b610837565b60405161026e91906129b9565b60405180910390f35b34801561028357600080fd5b5061028c6109e8565b005b34801561029a57600080fd5b506102a3610a70565b6040516102b09190612c0f565b60405180910390f35b3480156102c557600080fd5b506102ce610a78565b6040516102db91906128dc565b60405180910390f35b3480156102f057600080fd5b506102f9610aa2565b6040516103069190612a2d565b60405180910390f35b34801561031b57600080fd5b50610324610b30565b6040516103319190612a2d565b60405180910390f35b34801561034657600080fd5b5061034f610bbe565b60405161035c9190612c0f565b60405180910390f35b61037f600480360381019061037a91906124a3565b610bc4565b005b34801561038d57600080fd5b506103a860048036038101906103a3919061236d565b610cc4565b005b3480156103b657600080fd5b506103bf610cda565b6040516103cc9190612a2d565b60405180910390f35b3480156103e157600080fd5b506103fc60048036038101906103f791906121e3565b610d17565b6040516104099190612a12565b60405180910390f35b34801561041e57600080fd5b50610439600480360381019061043491906122de565b610dab565b005b34801561044757600080fd5b50610462600480360381019061045d91906121ba565b610e4c565b005b60008073ffffffffffffffffffffffffffffffffffffffff168373ffffffffffffffffffffffffffffffffffffffff1614156104d5576040517f08c379a00000000000000000000000000000000000000000000000000000000081526004016104cc90612a8f565b60405180910390fd5b60008083815260200190815260200160002060008473ffffffffffffffffffffffffffffffffffffffff1673ffffffffffffffffffffffffffffffffffffffff16815260200190815260200160002054905092915050565b60007fd9b67a26000000000000000000000000000000000000000000000000000000007bffffffffffffffffffffffffffffffffffffffffffffffffffffffff1916827bffffffffffffffffffffffffffffffffffffffffffffffffffffffff191614806105f857507f0e89341c000000000000000000000000000000000000000000000000000000007bffffffffffffffffffffffffffffffffffffffffffffffffffffffff1916827bffffffffffffffffffffffffffffffffffffffffffffffffffffffff1916145b80610608575061060782610f44565b5b9050919050565b6004805461061c90612f03565b80601f016020809104026020016040519081016040528092919081815260200182805461064890612f03565b80156106955780601f1061066a57610100808354040283529160200191610695565b820191906000526020600020905b81548152906001019060200180831161067857829003601f168201915b505050505081565b606060076106aa83610fae565b6040516020016106bb9291906128ad565b6040516020818303038152906040529050919050565b6106d961115b565b73ffffffffffffffffffffffffffffffffffffffff168573ffffffffffffffffffffffffffffffffffffffff16148061071f575061071e8561071961115b565b610d17565b5b61075e576040517f08c379a000000000000000000000000000000000000000000000000000000000815260040161075590612b2f565b60405180910390fd5b61076b8585858585611163565b5050505050565b61077a61115b565b73ffffffffffffffffffffffffffffffffffffffff16610798610a78565b73ffffffffffffffffffffffffffffffffffffffff16146107ee576040517f08c379a00000000000000000000000000000000000000000000000000000000081526004016107e590612b6f565b60405180910390fd5b3373ffffffffffffffffffffffffffffffffffffffff166108fc479081150290604051600060405180830381858888f19350505050158015610834573d6000803e3d6000fd5b50565b6060815183511461087d576040517f08c379a000000000000000000000000000000000000000000000000000000000815260040161087490612baf565b60405180910390fd5b6000835167ffffffffffffffff8111156108c0577f4e487b7100000000000000000000000000000000000000000000000000000000600052604160045260246000fd5b6040519080825280602002602001820160405280156108ee5781602001602082028036833780820191505090505b50905060005b84518110156109dd57610987858281518110610939577f4e487b7100000000000000000000000000000000000000000000000000000000600052603260045260246000fd5b602002602001015185838151811061097a577f4e487b7100000000000000000000000000000000000000000000000000000000600052603260045260246000fd5b6020026020010151610464565b8282815181106109c0577f4e487b7100000000000000000000000000000000000000000000000000000000600052603260045260246000fd5b602002602001018181525050806109d690612f66565b90506108f4565b508091505092915050565b6109f061115b565b73ffffffffffffffffffffffffffffffffffffffff16610a0e610a78565b73ffffffffffffffffffffffffffffffffffffffff1614610a64576040517f08c379a0000000000000000000000000000000000000000000000000000000008152600401610a5b90612b6f565b60405180910390fd5b610a6e60006114c3565b565b600047905090565b6000600360009054906101000a900473ffffffffffffffffffffffffffffffffffffffff16905090565b60058054610aaf90612f03565b80601f0160208091040260200160405190810160405280929190818152602001828054610adb90612f03565b8015610b285780601f10610afd57610100808354040283529160200191610b28565b820191906000526020600020905b815481529060010190602001808311610b0b57829003601f168201915b505050505081565b60078054610b3d90612f03565b80601f0160208091040260200160405190810160405280929190818152602001828054610b6990612f03565b8015610bb65780601f10610b8b57610100808354040283529160200191610bb6565b820191906000526020600020905b815481529060010190602001808311610b9957829003601f168201915b505050505081565b60065481565b610bcc61115b565b73ffffffffffffffffffffffffffffffffffffffff16610bea610a78565b73ffffffffffffffffffffffffffffffffffffffff1614610c40576040517f08c379a0000000000000000000000000000000000000000000000000000000008152600401610c3790612b6f565b60405180910390fd5b67016345785d8a00003414610c8a576040517f08c379a0000000000000000000000000000000000000000000000000000000008152600401610c8190612aef565b60405180910390fd5b600160066000828254610c9d9190612d92565b92505081905550610cc1336006548360405180602001604052806000815250611589565b50565b610cd6610ccf61115b565b838361171f565b5050565b60606040518060400160405280601681526020017f5468697320776f726b7320617320696e74656e64656400000000000000000000815250905090565b6000600160008473ffffffffffffffffffffffffffffffffffffffff1673ffffffffffffffffffffffffffffffffffffffff16815260200190815260200160002060008373ffffffffffffffffffffffffffffffffffffffff1673ffffffffffffffffffffffffffffffffffffffff16815260200190815260200160002060009054906101000a900460ff16905092915050565b610db361115b565b73ffffffffffffffffffffffffffffffffffffffff168573ffffffffffffffffffffffffffffffffffffffff161480610df95750610df885610df361115b565b610d17565b5b610e38576040517f08c379a0000000000000000000000000000000000000000000000000000000008152600401610e2f90612acf565b60405180910390fd5b610e45858585858561188c565b5050505050565b610e5461115b565b73ffffffffffffffffffffffffffffffffffffffff16610e72610a78565b73ffffffffffffffffffffffffffffffffffffffff1614610ec8576040517f08c379a0000000000000000000000000000000000000000000000000000000008152600401610ebf90612b6f565b60405180910390fd5b600073ffffffffffffffffffffffffffffffffffffffff168173ffffffffffffffffffffffffffffffffffffffff161415610f38576040517f08c379a0000000000000000000000000000000000000000000000000000000008152600401610f2f90612aaf565b60405180910390fd5b610f41816114c3565b50565b60007f01ffc9a7000000000000000000000000000000000000000000000000000000007bffffffffffffffffffffffffffffffffffffffffffffffffffffffff1916827bffffffffffffffffffffffffffffffffffffffffffffffffffffffff1916149050919050565b60606000821415610ff6576040518060400160405280600181526020017f30000000000000000000000000000000000000000000000000000000000000008152509050611156565b600082905060005b6000821461102857808061101190612f66565b915050600a826110219190612de8565b9150610ffe565b60008167ffffffffffffffff81111561106a577f4e487b7100000000000000000000000000000000000000000000000000000000600052604160045260246000fd5b6040519080825280601f01601f19166020018201604052801561109c5781602001600182028036833780820191505090505b5090505b6000851461114f576001826110b59190612e19565b9150600a856110c49190612faf565b60306110d09190612d92565b60f81b81838151811061110c577f4e487b7100000000000000000000000000000000000000000000000000000000600052603260045260246000fd5b60200101907effffffffffffffffffffffffffffffffffffffffffffffffffffffffffffff1916908160001a905350600a856111489190612de8565b94506110a0565b8093505050505b919050565b600033905090565b81518351146111a7576040517f08c379a000000000000000000000000000000000000000000000000000000000815260040161119e90612bcf565b60405180910390fd5b600073ffffffffffffffffffffffffffffffffffffffff168473ffffffffffffffffffffffffffffffffffffffff161415611217576040517f08c379a000000000000000000000000000000000000000000000000000000000815260040161120e90612b0f565b60405180910390fd5b600061122161115b565b9050611231818787878787611b0e565b60005b845181101561142e576000858281518110611278577f4e487b7100000000000000000000000000000000000000000000000000000000600052603260045260246000fd5b6020026020010151905060008583815181106112bd577f4e487b7100000000000000000000000000000000000000000000000000000000600052603260045260246000fd5b60200260200101519050600080600084815260200190815260200160002060008b73ffffffffffffffffffffffffffffffffffffffff1673ffffffffffffffffffffffffffffffffffffffff1681526020019081526020016000205490508181101561135e576040517f08c379a000000000000000000000000000000000000000000000000000000000815260040161135590612b4f565b60405180910390fd5b81810360008085815260200190815260200160002060008c73ffffffffffffffffffffffffffffffffffffffff1673ffffffffffffffffffffffffffffffffffffffff168152602001908152602001600020819055508160008085815260200190815260200160002060008b73ffffffffffffffffffffffffffffffffffffffff1673ffffffffffffffffffffffffffffffffffffffff16815260200190815260200160002060008282546114139190612d92565b925050819055505050508061142790612f66565b9050611234565b508473ffffffffffffffffffffffffffffffffffffffff168673ffffffffffffffffffffffffffffffffffffffff168273ffffffffffffffffffffffffffffffffffffffff167f4a39dc06d4c0dbc64b70af90fd698a233a518aa5d07e595d983b8c0526c8f7fb87876040516114a59291906129db565b60405180910390a46114bb818787878787611b16565b505050505050565b6000600360009054906101000a900473ffffffffffffffffffffffffffffffffffffffff16905081600360006101000a81548173ffffffffffffffffffffffffffffffffffffffff021916908373ffffffffffffffffffffffffffffffffffffffff1602179055508173ffffffffffffffffffffffffffffffffffffffff168173ffffffffffffffffffffffffffffffffffffffff167f8be0079c531659141344cd1fd0a4f28419497f9722a3daafe3b4186f6b6457e060405160405180910390a35050565b600073ffffffffffffffffffffffffffffffffffffffff168473ffffffffffffffffffffffffffffffffffffffff1614156115f9576040517f08c379a00000000000000000000000000000000000000000000000000000000081526004016115f090612bef565b60405180910390fd5b600061160361115b565b90506116248160008761161588611cfd565b61161e88611cfd565b87611b0e565b8260008086815260200190815260200160002060008773ffffffffffffffffffffffffffffffffffffffff1673ffffffffffffffffffffffffffffffffffffffff16815260200190815260200160002060008282546116839190612d92565b925050819055508473ffffffffffffffffffffffffffffffffffffffff16600073ffffffffffffffffffffffffffffffffffffffff168273ffffffffffffffffffffffffffffffffffffffff167fc3d58168c5ae7397731d063d5bbf3d657854427343f4c083240f7aacaa2d0f628787604051611701929190612c2a565b60405180910390a461171881600087878787611dc3565b5050505050565b8173ffffffffffffffffffffffffffffffffffffffff168373ffffffffffffffffffffffffffffffffffffffff16141561178e576040517f08c379a000000000000000000000000000000000000000000000000000000000815260040161178590612b8f565b60405180910390fd5b80600160008573ffffffffffffffffffffffffffffffffffffffff1673ffffffffffffffffffffffffffffffffffffffff16815260200190815260200160002060008473ffffffffffffffffffffffffffffffffffffffff1673ffffffffffffffffffffffffffffffffffffffff16815260200190815260200160002060006101000a81548160ff0219169083151502179055508173ffffffffffffffffffffffffffffffffffffffff168373ffffffffffffffffffffffffffffffffffffffff167f17307eab39ab6107e8899845ad3d59bd9653f200f220920489ca2b5937696c318360405161187f9190612a12565b60405180910390a3505050565b600073ffffffffffffffffffffffffffffffffffffffff168473ffffffffffffffffffffffffffffffffffffffff1614156118fc576040517f08c379a00000000000000000000000000000000000000000000000000000000081526004016118f390612b0f565b60405180910390fd5b600061190661115b565b905061192681878761191788611cfd565b61192088611cfd565b87611b0e565b600080600086815260200190815260200160002060008873ffffffffffffffffffffffffffffffffffffffff1673ffffffffffffffffffffffffffffffffffffffff168152602001908152602001600020549050838110156119bd576040517f08c379a00000000000000000000000000000000000000000000000000000000081526004016119b490612b4f565b60405180910390fd5b83810360008087815260200190815260200160002060008973ffffffffffffffffffffffffffffffffffffffff1673ffffffffffffffffffffffffffffffffffffffff168152602001908152602001600020819055508360008087815260200190815260200160002060008873ffffffffffffffffffffffffffffffffffffffff1673ffffffffffffffffffffffffffffffffffffffff1681526020019081526020016000206000828254611a729190612d92565b925050819055508573ffffffffffffffffffffffffffffffffffffffff168773ffffffffffffffffffffffffffffffffffffffff168373ffffffffffffffffffffffffffffffffffffffff167fc3d58168c5ae7397731d063d5bbf3d657854427343f4c083240f7aacaa2d0f628888604051611aef929190612c2a565b60405180910390a4611b05828888888888611dc3565b50505050505050565b505050505050565b611b358473ffffffffffffffffffffffffffffffffffffffff16611faa565b15611cf5578373ffffffffffffffffffffffffffffffffffffffff1663bc197c8187878686866040518663ffffffff1660e01b8152600401611b7b9594939291906128f7565b602060405180830381600087803b158015611b9557600080fd5b505af1925050508015611bc657506040513d601f19601f82011682018060405250810190611bc3919061247a565b60015b611c6c57611bd261309c565b806308c379a01415611c2f5750611be7613531565b80611bf25750611c31565b806040517f08c379a0000000000000000000000000000000000000000000000000000000008152600401611c269190612a2d565b60405180910390fd5b505b6040517f08c379a0000000000000000000000000000000000000000000000000000000008152600401611c6390612a4f565b60405180910390fd5b63bc197c8160e01b7bffffffffffffffffffffffffffffffffffffffffffffffffffffffff1916817bffffffffffffffffffffffffffffffffffffffffffffffffffffffff191614611cf3576040517f08c379a0000000000000000000000000000000000000000000000000000000008152600401611cea90612a6f565b60405180910390fd5b505b505050505050565b60606000600167ffffffffffffffff811115611d42577f4e487b7100000000000000000000000000000000000000000000000000000000600052604160045260246000fd5b604051908082528060200260200182016040528015611d705781602001602082028036833780820191505090505b5090508281600081518110611dae577f4e487b7100000000000000000000000000000000000000000000000000000000600052603260045260246000fd5b60200260200101818152505080915050919050565b611de28473ffffffffffffffffffffffffffffffffffffffff16611faa565b15611fa2578373ffffffffffffffffffffffffffffffffffffffff1663f23a6e6187878686866040518663ffffffff1660e01b8152600401611e2895949392919061295f565b602060405180830381600087803b158015611e4257600080fd5b505af1925050508015611e7357506040513d601f19601f82011682018060405250810190611e70919061247a565b60015b611f1957611e7f61309c565b806308c379a01415611edc5750611e94613531565b80611e9f5750611ede565b806040517f08c379a0000000000000000000000000000000000000000000000000000000008152600401611ed39190612a2d565b60405180910390fd5b505b6040517f08c379a0000000000000000000000000000000000000000000000000000000008152600401611f1090612a4f565b60405180910390fd5b63f23a6e6160e01b7bffffffffffffffffffffffffffffffffffffffffffffffffffffffff1916817bffffffffffffffffffffffffffffffffffffffffffffffffffffffff191614611fa0576040517f08c379a0000000000000000000000000000000000000000000000000000000008152600401611f9790612a6f565b60405180910390fd5b505b505050505050565b600080823b905060008111915050919050565b6000611fd0611fcb84612c78565b612c53565b90508083825260208201905082856020860282011115611fef57600080fd5b60005b8581101561201f578161200588826120d3565b845260208401935060208301925050600181019050611ff2565b5050509392505050565b600061203c61203784612ca4565b612c53565b9050808382526020820190508285602086028201111561205b57600080fd5b60005b8581101561208b578161207188826121a5565b84526020840193506020830192505060018101905061205e565b5050509392505050565b60006120a86120a384612cd0565b612c53565b9050828152602081018484840111156120c057600080fd5b6120cb848285612ec1565b509392505050565b6000813590506120e2816135c7565b92915050565b600082601f8301126120f957600080fd5b8135612109848260208601611fbd565b91505092915050565b600082601f83011261212357600080fd5b8135612133848260208601612029565b91505092915050565b60008135905061214b816135de565b92915050565b600081359050612160816135f5565b92915050565b600081519050612175816135f5565b92915050565b600082601f83011261218c57600080fd5b813561219c848260208601612095565b91505092915050565b6000813590506121b48161360c565b92915050565b6000602082840312156121cc57600080fd5b60006121da848285016120d3565b91505092915050565b600080604083850312156121f657600080fd5b6000612204858286016120d3565b9250506020612215858286016120d3565b9150509250929050565b600080600080600060a0868803121561223757600080fd5b6000612245888289016120d3565b9550506020612256888289016120d3565b945050604086013567ffffffffffffffff81111561227357600080fd5b61227f88828901612112565b935050606086013567ffffffffffffffff81111561229c57600080fd5b6122a888828901612112565b925050608086013567ffffffffffffffff8111156122c557600080fd5b6122d18882890161217b565b9150509295509295909350565b600080600080600060a086880312156122f657600080fd5b6000612304888289016120d3565b9550506020612315888289016120d3565b9450506040612326888289016121a5565b9350506060612337888289016121a5565b925050608086013567ffffffffffffffff81111561235457600080fd5b6123608882890161217b565b9150509295509295909350565b6000806040838503121561238057600080fd5b600061238e858286016120d3565b925050602061239f8582860161213c565b9150509250929050565b600080604083850312156123bc57600080fd5b60006123ca858286016120d3565b92505060206123db858286016121a5565b9150509250929050565b600080604083850312156123f857600080fd5b600083013567ffffffffffffffff81111561241257600080fd5b61241e858286016120e8565b925050602083013567ffffffffffffffff81111561243b57600080fd5b61244785828601612112565b9150509250929050565b60006020828403121561246357600080fd5b600061247184828501612151565b91505092915050565b60006020828403121561248c57600080fd5b600061249a84828501612166565b91505092915050565b6000602082840312156124b557600080fd5b60006124c3848285016121a5565b91505092915050565b60006124d8838361288f565b60208301905092915050565b6124ed81612e4d565b82525050565b60006124fe82612d26565b6125088185612d54565b935061251383612d01565b8060005b8381101561254457815161252b88826124cc565b975061253683612d47565b925050600181019050612517565b5085935050505092915050565b61255a81612e5f565b82525050565b600061256b82612d31565b6125758185612d65565b9350612585818560208601612ed0565b61258e816130be565b840191505092915050565b60006125a482612d3c565b6125ae8185612d76565b93506125be818560208601612ed0565b6125c7816130be565b840191505092915050565b60006125dd82612d3c565b6125e78185612d87565b93506125f7818560208601612ed0565b80840191505092915050565b6000815461261081612f03565b61261a8186612d87565b94506001821660008114612635576001811461264657612679565b60ff19831686528186019350612679565b61264f85612d11565b60005b8381101561267157815481890152600182019150602081019050612652565b838801955050505b50505092915050565b600061268f603483612d76565b915061269a826130dc565b604082019050919050565b60006126b2602883612d76565b91506126bd8261312b565b604082019050919050565b60006126d5602b83612d76565b91506126e08261317a565b604082019050919050565b60006126f8602683612d76565b9150612703826131c9565b604082019050919050565b600061271b602983612d76565b915061272682613218565b604082019050919050565b600061273e602883612d76565b915061274982613267565b604082019050919050565b6000612761602583612d76565b915061276c826132b6565b604082019050919050565b6000612784603283612d76565b915061278f82613305565b604082019050919050565b60006127a7602a83612d76565b91506127b282613354565b604082019050919050565b60006127ca600583612d87565b91506127d5826133a3565b600582019050919050565b60006127ed602083612d76565b91506127f8826133cc565b602082019050919050565b6000612810602983612d76565b915061281b826133f5565b604082019050919050565b6000612833602983612d76565b915061283e82613444565b604082019050919050565b6000612856602883612d76565b915061286182613493565b604082019050919050565b6000612879602183612d76565b9150612884826134e2565b604082019050919050565b61289881612eb7565b82525050565b6128a781612eb7565b82525050565b60006128b98285612603565b91506128c582846125d2565b91506128d0826127bd565b91508190509392505050565b60006020820190506128f160008301846124e4565b92915050565b600060a08201905061290c60008301886124e4565b61291960208301876124e4565b818103604083015261292b81866124f3565b9050818103606083015261293f81856124f3565b905081810360808301526129538184612560565b90509695505050505050565b600060a08201905061297460008301886124e4565b61298160208301876124e4565b61298e604083018661289e565b61299b606083018561289e565b81810360808301526129ad8184612560565b90509695505050505050565b600060208201905081810360008301526129d381846124f3565b905092915050565b600060408201905081810360008301526129f581856124f3565b90508181036020830152612a0981846124f3565b90509392505050565b6000602082019050612a276000830184612551565b92915050565b60006020820190508181036000830152612a478184612599565b905092915050565b60006020820190508181036000830152612a6881612682565b9050919050565b60006020820190508181036000830152612a88816126a5565b9050919050565b60006020820190508181036000830152612aa8816126c8565b9050919050565b60006020820190508181036000830152612ac8816126eb565b9050919050565b60006020820190508181036000830152612ae88161270e565b9050919050565b60006020820190508181036000830152612b0881612731565b9050919050565b60006020820190508181036000830152612b2881612754565b9050919050565b60006020820190508181036000830152612b4881612777565b9050919050565b60006020820190508181036000830152612b688161279a565b9050919050565b60006020820190508181036000830152612b88816127e0565b9050919050565b60006020820190508181036000830152612ba881612803565b9050919050565b60006020820190508181036000830152612bc881612826565b9050919050565b60006020820190508181036000830152612be881612849565b9050919050565b60006020820190508181036000830152612c088161286c565b9050919050565b6000602082019050612c24600083018461289e565b92915050565b6000604082019050612c3f600083018561289e565b612c4c602083018461289e565b9392505050565b6000612c5d612c6e565b9050612c698282612f35565b919050565b6000604051905090565b600067ffffffffffffffff821115612c9357612c9261306d565b5b602082029050602081019050919050565b600067ffffffffffffffff821115612cbf57612cbe61306d565b5b602082029050602081019050919050565b600067ffffffffffffffff821115612ceb57612cea61306d565b5b612cf4826130be565b9050602081019050919050565b6000819050602082019050919050565b60008190508160005260206000209050919050565b600081519050919050565b600081519050919050565b600081519050919050565b6000602082019050919050565b600082825260208201905092915050565b600082825260208201905092915050565b600082825260208201905092915050565b600081905092915050565b6000612d9d82612eb7565b9150612da883612eb7565b9250827fffffffffffffffffffffffffffffffffffffffffffffffffffffffffffffffff03821115612ddd57612ddc612fe0565b5b828201905092915050565b6000612df382612eb7565b9150612dfe83612eb7565b925082612e0e57612e0d61300f565b5b828204905092915050565b6000612e2482612eb7565b9150612e2f83612eb7565b925082821015612e4257612e41612fe0565b5b828203905092915050565b6000612e5882612e97565b9050919050565b60008115159050919050565b60007fffffffff0000000000000000000000000000000000000000000000000000000082169050919050565b600073ffffffffffffffffffffffffffffffffffffffff82169050919050565b6000819050919050565b82818337600083830152505050565b60005b83811015612eee578082015181840152602081019050612ed3565b83811115612efd576000848401525b50505050565b60006002820490506001821680612f1b57607f821691505b60208210811415612f2f57612f2e61303e565b5b50919050565b612f3e826130be565b810181811067ffffffffffffffff82111715612f5d57612f5c61306d565b5b80604052505050565b6000612f7182612eb7565b91507fffffffffffffffffffffffffffffffffffffffffffffffffffffffffffffffff821415612fa457612fa3612fe0565b5b600182019050919050565b6000612fba82612eb7565b9150612fc583612eb7565b925082612fd557612fd461300f565b5b828206905092915050565b7f4e487b7100000000000000000000000000000000000000000000000000000000600052601160045260246000fd5b7f4e487b7100000000000000000000000000000000000000000000000000000000600052601260045260246000fd5b7f4e487b7100000000000000000000000000000000000000000000000000000000600052602260045260246000fd5b7f4e487b7100000000000000000000000000000000000000000000000000000000600052604160045260246000fd5b600060033d11156130bb5760046000803e6130b86000516130cf565b90505b90565b6000601f19601f8301169050919050565b60008160e01c9050919050565b7f455243313135353a207472616e7366657220746f206e6f6e204552433131353560008201527f526563656976657220696d706c656d656e746572000000000000000000000000602082015250565b7f455243313135353a204552433131353552656365697665722072656a6563746560008201527f6420746f6b656e73000000000000000000000000000000000000000000000000602082015250565b7f455243313135353a2062616c616e636520717565727920666f7220746865207a60008201527f65726f2061646472657373000000000000000000000000000000000000000000602082015250565b7f4f776e61626c653a206e6577206f776e657220697320746865207a65726f206160008201527f6464726573730000000000000000000000000000000000000000000000000000602082015250565b7f455243313135353a2063616c6c6572206973206e6f74206f776e6572206e6f7260008201527f20617070726f7665640000000000000000000000000000000000000000000000602082015250565b7f4e6f7420656e6f756768204554482073656e743b20706c65617365206368656360008201527f6b20707269636521000000000000000000000000000000000000000000000000602082015250565b7f455243313135353a207472616e7366657220746f20746865207a65726f20616460008201527f6472657373000000000000000000000000000000000000000000000000000000602082015250565b7f455243313135353a207472616e736665722063616c6c6572206973206e6f742060008201527f6f776e6572206e6f7220617070726f7665640000000000000000000000000000602082015250565b7f455243313135353a20696e73756666696369656e742062616c616e636520666f60008201527f72207472616e7366657200000000000000000000000000000000000000000000602082015250565b7f2e6a736f6e000000000000000000000000000000000000000000000000000000600082015250565b7f4f776e61626c653a2063616c6c6572206973206e6f7420746865206f776e6572600082015250565b7f455243313135353a2073657474696e6720617070726f76616c2073746174757360008201527f20666f722073656c660000000000000000000000000000000000000000000000602082015250565b7f455243313135353a206163636f756e747320616e6420696473206c656e67746860008201527f206d69736d617463680000000000000000000000000000000000000000000000602082015250565b7f455243313135353a2069647320616e6420616d6f756e7473206c656e6774682060008201527f6d69736d61746368000000000000000000000000000000000000000000000000602082015250565b7f455243313135353a206d696e7420746f20746865207a65726f2061646472657360008201527f7300000000000000000000000000000000000000000000000000000000000000602082015250565b600060443d1015613541576135c4565b613549612c6e565b60043d036004823e80513d602482011167ffffffffffffffff821117156135715750506135c4565b808201805167ffffffffffffffff81111561358f57505050506135c4565b80602083010160043d0385018111156135ac5750505050506135c4565b6135bb82602001850186612f35565b82955050505050505b90565b6135d081612e4d565b81146135db57600080fd5b50565b6135e781612e5f565b81146135f257600080fd5b50565b6135fe81612e6b565b811461360957600080fd5b50565b61361581612eb7565b811461362057600080fd5b5056fea2646970667358221220902d30298dd06ad2494fb6ac9039f3bda98b7c160f7608f3bfabe8662e33c99a64736f6c63430008020033",
  "linkReferences": {},
  "deployedLinkReferences": {}
}